:020000040000FA
:100000000C9469050C94781A0C94511A0C9491056F
:100010000C9491050C9491050C9491050C94910508
:100020000C9491050C9491050C9491050C949105F8
:100030000C9491050C9491050C9491050C949105E8
:100040000C94071A0C9491050C94D5190C94AF19C3
:100050000C9491050C9491050C9491050C949105C8
:100060000C949F1A0C94910507634236B79BD8A74E
:100070001A39685618AEBAAB558C1D3CB7CC5763CD
:10008000BD6DEDFD753EF6177231BF000000803F7B
:1000900005A84CCDB2D44EB93836A9020C50B9914E
:1000A0008688083CA6AAAA2ABE000000803F00005D
:1000B0000000003E5B4F5B3E3E6B4F6B3E1C3E7C48
:1000C0003E1C183C7E3C181C577D571C1C5E7F5EF6
:1000D0001C00183C1800FFE7C3E7FF0018241800B5
:1000E000FFE7DBE7FF30483A060E2629792926404C
:1000F0007F050507407F05253F5A3CE73C5A7F3E78
:100100001C1C08081C1C3E7F14227F22145F5F0009
:100110005F5F06097F017F006689956A60606060A5
:100120006094A2FFA29408047E040810207E201090
:1001300008082A1C08081C2A08081E101010100C99
:100140001E0C1E0C30383E3830060E3E0E060000E7
:1001500000000000005F00000007000700147F148B
:100160007F14242A7F2A12231308646236495620FA
:10017000500008070300001C2241000041221C001F
:100180002A1C7F1C2A08083E0808008070300008DE
:1001900008080808000060600020100804023E51B2
:1001A00049453E00427F4000724949494621414944
:1001B0004D331814127F1027454545393C4A4949AB
:1001C0003141211109073649494936464949291E15
:1001D0000000140000004034000000081422411404
:1001E00014141414004122140802015909063E4156
:1001F0005D594E7C1211127C7F494949363E41417E
:1002000041227F4141413E7F494949417F090909D6
:10021000013E414151737F0808087F00417F410042
:100220002040413F017F081422417F404040407FF1
:10023000021C027F7F0408107F3E4141413E7F093E
:100240000909063E4151215E7F091929462649497F
:10025000493203017F01033F4040403F1F204020BF
:100260001F3F4038403F63140814630304780403BD
:100270006159494D43007F4141410204081020006B
:100280004141417F040201020440404040400003DC
:1002900007080020545478407F28444438384444A8
:1002A0004428384444287F385454541800087E09A0
:1002B0000218A4A49C787F0804047800447D4000C0
:1002C0002040403D007F1028440000417F40007CDA
:1002D000047804787C080404783844444438FC18D2
:1002E00024241818242418FC7C08040408485454B6
:1002F000542404043F44243C4040207C1C204020E3
:100300001C3C4030403C44281028444C9090907C49
:100310004464544C4400083641000000770000005B
:100320004136080002010204023C2623263C1EA19D
:10033000A161123A4040207A3854545559215555FC
:1003400079412254547842215554784020545579AB
:10035000400C1E527212395555555939545454593E
:1003600039555454580000457C410002457D4200F7
:1003700001457C407D1211127DF0282528F07C5427
:100380005545002054547C547C0A097F4932494920
:1003900049323A4444443A324A4848303A41412189
:1003A0007A3A42402078009DA0A07D3D4242423DE5
:1003B0003D4040403D3C24FF2424487E4943662B79
:1003C0002FFC2F2BFF0929F620C0887E090320541B
:1003D0005479410000447D413048484A3238404019
:1003E000227A007A0A0A727D0D19317D2629292F79
:1003F00028262929292630484D4020380808080891
:1004000008080808382F10C8ACBA2F102834FA0092
:10041000007B000008142A142222142A1408550014
:10042000550055AA55AA55AAFF55FF55FF000000D3
:10043000FF00101010FF00141414FF001010FF0034
:10044000FF1010F010F0141414FC001414F700FF47
:100450000000FF00FF1414F404FC141417101F1004
:10046000101F101F1414141F00101010F0000000B3
:10047000001F101010101F10101010F010000000BE
:10048000FF101010101010101010FF10000000FFCF
:10049000140000FF00FF00001F10170000FC04F410
:1004A00014141710171414F404F40000FF00F714C8
:1004B000141414141414F700F7141414171410104F
:1004C0001F101F141414F4141010F010F000001F6B
:1004D000101F0000001F14000000FC140000F010AA
:1004E000F01010FF10FF141414FF141010101F0050
:1004F000000000F010FFFFFFFFFFF0F0F0F0F0FF52
:10050000FFFF0000000000FFFF0F0F0F0F0F384428
:10051000443844FC4A4A4A347E02020606027E02FD
:100520007E0263554941633844443C04407E201EAA
:100530002006027E020299A5E7A5991C2A492A1CD9
:100540004C7201724C304A4D4D303048784830BCC6
:10055000625A463D3E494949007E0101017E2A2AF0
:100560002A2A2A44445F444440514A444040444A71
:1005700051400000FF0103E080FF000008086B6BA2
:10058000083612362436060F090F06000018180028
:1005900000001010003040FF0101001F01011E008B
:1005A000191D1712003C3C3C3C00000000000001FB
:1005B00003070F1F3F7F0080C0E0F0F8FCFE000043
:1005C00000002300260029000000000800020100AE
:1005D000000304070000000000000000000000000D
:1005E000240027002A00DB40A4A62EAF2000A1C8CB
:1005F000D300408DAED580A8000060000000000050
:10060000000000000000000000E00000000000000A
:100610000000000000000001E000000000000000F9
:1006200000000000000001F00000000000000000D9
:10063000000000000003F0000000000000000000C7
:100640000000000007F000000000000000000000B3
:1006500000000007F800000000000000000000009B
:1006600000000FF800000003C0007E000001E00061
:100670007F0FF800000003C000FE000001E000FF53
:10068000EFF800000003C000FE000001E000FFFFE3
:10069000F800000003C000F00000000F007FFE7FA4
:1006A000C0000003C000F00000000F003FFE7FF814
:1006B0003FF1FBCFFCFEF3BC3DEFE01FFE7FFF7F71
:1006C000FBFFDFFEFEFFBC3DEFE01FC6FFFF7FFB31
:1006D000FFDFFEFEFFBC3DEFE00FE3C7FE787BC30C
:1006E000DE1EF0FFBC3DEF0007FF87FC787BC3DE1A
:1006F0001EF0F83C3DEF0001FFFFF0007BC3C01E81
:10070000F0F03C3DEF0001F37FE03FFBC3CFFEF094
:10071000F03C3DEF0003E33F807FFBC3DFFEF0F0E2
:100720003C3DEF0007E73C00787BC3DE1EF0F03C69
:100730003DEF0007FFBE00787BC3DE1EF0F03C3DBE
:10074000EF0007FFFE00787BC3DE1EF0F03C3DEFBC
:10075000000FFFFE007FFBFFDFFEF0F03FFDEFE04C
:100760000FFFFF007FFBFFDFFEF0F03FFDEFE00F2C
:10077000F9FF003E79F9CF9EF0F01F3DE7E01FF151
:10078000FF0000000000000000000000001F80FFCC
:10079000007FFFFFFFFFFFFFFFFFFFE01C007F0068
:1007A0007FFFFFFFFEB46D888D18E000001F007F03
:1007B000FFFFFFFE95AD7DB577E000000F007FFFE6
:1007C000FFFFFEA5AD9D8D19E0000006007FFFFF35
:1007D000FFFEB5ADEDB57EE0000000000001800039
:1007E0000000000000000000038000000000000086
:1007F00000000007C000000000000000000007C06B
:100800000000000000000000000FC0000000000019
:10081000000000001FE00000000000000000001FBA
:10082000E00000000000000000003FE000000000C9
:1008300000000000003FF000000000000000000089
:100840007FF0000000000000001FF87FF0000000B3
:10085000000000003FFE7FF0000000000000003FAD
:10086000FF7FF0000000000000001FFFFBE0000021
:1008700000000000000FFFF9FFC0000000000000B2
:100880000FFFF9FFF800000000000007FFF1FFFF75
:1008900000000000000003FC73FFFF800000000068
:1008A0000001FE3FFFFF80000000000000FF1E0F60
:1008B000FF000000000000007FFE1FFC00000000A1
:1008C0000000003FFFFFF8000000000000000FDF05
:1008D000FFE0000000000000001F19FFC000000042
:1008E000000000003F3CFF00000000000000007E10
:1008F0007CF800000000000000007FFE7C0000008B
:100900000000000000FFFFFC0000000000000000ED
:10091000FFFFFE0000000000000000FFFFFE0000DF
:10092000000000000001FFEFFE00000000000000DA
:1009300001FFCFFE0000000000000003FF07FE00E3
:1009400000000000000003FC07FE000000000000A3
:100950000003F003FE00000000000000018000FE24
:10096000000000000000000000007E000000000009
:1009700000000000003E0000000000000000000039
:100980000C000000000000078000FC000003C00015
:100990000000078001FC000003C000000007800188
:1009A000FC000003C0000000078001E00000001E02
:1009B000000000078001E00000001E007FE3F79FB9
:1009C000F9FDE7787BDFC0FFF7FFBFFDFDFF787B18
:1009D000DFC0FFF7FFBFFDFDFF787BDFC0F0F787CB
:1009E000BC3DE1FF787BDE00F0F787BC3DE1F078AD
:1009F0007BDE0000F787803DE1E0787BDE007FF75B
:100A0000879FFDE1E0787BDE00FFF787BFFDE1E037
:100A1000787BDE00F0F787BC3DE1E0787BDE00F01C
:100A2000F787BC3DE1E0787BDE00F0F787BC3DE175
:100A3000E0787BDE00FFF7FFBFFDE1E07FFBDFC07A
:100A4000FFF7FFBFFDE1E07FFBDFC07CF3F39F3DDD
:100A5000E1E03E7BCFC0000000000000000000008D
:100A600000FFFFFFFFFFFFFFFFFFFFC0FFFFFFFFD4
:100A7000FD68DB111A31C0FFFFFFFFFD2B5AFB6A37
:100A8000EFC0FFFFFFFFFD4B5B3B1A33C0FFFFFFD3
:100A9000FFFD6B5BDB6AFDC02200FF210102040841
:100AA00010204080010204081020010204081020D8
:100AB00000000000250028002B00040404040404A6
:100AC0000404020202020202030303030303BE1B27
:100AD000912511241FBECFEFD8E0DEBFCDBF24E0AB
:100AE000AAE1B2E001C01D92AB30B207E1F712E01B
:100AF000A0E0B1E0EEE4F9E502C005900D92AA3164
:100B0000B107D9F715E0C8E6D5E004C02197FE018A
:100B10000E947F2AC736D107C9F70E94E61C0C94B1
:100B20009A2C0C9400008F929F92AF92BF92CF921A
:100B3000DF92EF92FF92CF932091A7033091A80309
:100B400082179307E8F54B01AA24BB24C82DC52EB4
:100B5000D62EE72EFF24BC2DA42F2091AD032223F7
:100B600061F0829E40011124C92D2C9D6001112449
:100B7000BD2D249FF0011124AF2FE091B303E0902D
:100B8000AE03F090AF033091B003E31323C09C0198
:100B9000220F331F820F931F8E0D9F1DE091B00314
:100BA000E80FF92FF11DC083E091B103E80FF92F91
:100BB000F11DB0832091B203820F911DFC01A0832F
:100BC000CF91FF90EF90DF90CF90BF90AF909F902C
:100BD0008F900895880F991F880F991F8E0D9F1D64
:100BE000472F552766277727222349F030E0249F97
:100BF0007001259FF00C349FF00C11244F2DE80F4D
:100C0000F92FF11D4083CACFE091A703F091A8030B
:100C10008E179F0798F53091AD03332361F0639FE2
:100C2000B0011124672F349FA0011124452F329F5A
:100C300090011124232F3091B303E091AE03F09182
:100C4000AF035091B00335131AC0DC01AA0FBB1FCC
:100C50008A0F9B1F8E0F9F1FE091B003E80FF92FA3
:100C6000F11D6083E091B103E80FF92FF11D40837E
:100C70003091B203830F911DFC0120830895880FEA
:100C8000991F880F991F8E0F9F1FFC01E30FF11D05
:100C90001082E2CF0895809194029091950201967E
:100CA0009093950280939402089508950895AF92C9
:100CB000BF92CF92DF92EF92FF920F931F93CF9349
:100CC000DF936C017B018B01040F151FEB015E01AB
:100CD000AE18BF08C017D10759F06991D601ED9140
:100CE000FC910190F081E02DC6010995892B79F7DF
:100CF000C501DF91CF911F910F91FF90EF90DF9091
:100D0000CF90BF90AF900895FC01538D448D252F57
:100D100030E0842F90E0821B930B541710F0CF9695
:100D2000089501970895FC01918D828D981761F0C7
:100D3000A28DAE0FBF2FB11D5D968C91928D9F5FDE
:100D40009F73928F90E008958FEF9FEF0895FC01BD
:100D5000918D828D981731F0828DE80FF11D858D70
:100D600090E008958FEF9FEF0895FC01918D228D03
:100D7000892F90E0805C9F4F821B91098F73992788
:100D8000089588E093E00E94B50621E0892B09F4DC
:100D900020E0822F089580E090E0892B29F00E94C6
:100DA000C10681110C9400000895FC01A48DA80FC8
:100DB000B92FB11DA35ABF4F2C91848D90E001969D
:100DC0008F739927848FA689B7892C93A089B189BD
:100DD0008C91837080648C93938D848D981306C05E
:100DE0000288F389E02D80818F7D80830895EF92C2
:100DF000FF920F931F93CF93DF93EC0181E0888FD5
:100E00009B8D8C8D98131AC0E889F989808185FFA4
:100E100015C09FB7F894EE89FF896083E889F98946
:100E200080818370806480839FBF81E090E0DF9148
:100E3000CF911F910F91FF90EF900895F62E0B8D9B
:100E400010E00F5F1F4F0F731127E02E8C8D8E1156
:100E50000CC00FB607FCFACFE889F989808185FFBD
:100E6000F5CFCE010E94D506F1CFEB8DEC0FFD2F13
:100E7000F11DE35AFF4FF0829FB7F8940B8FEA8978
:100E8000FB8980818062CFCFCF93DF93EC01888D87
:100E90008823B9F0AA89BB89E889F9898C9185FDF5
:100EA00003C0808186FD0DC00FB607FCF7CF8C9183
:100EB00085FFF2CF808185FFEDCFCE010E94D50660
:100EC000E9CFDF91CF910895833081F028F481300C
:100ED00099F08230A9F008958730A9F08830C9F0E0
:100EE0008430B1F4809180008F7D03C080918000B8
:100EF0008F7780938000089584B58F7784BD08959F
:100F000084B58F7DFBCF8091B0008F778093B00048
:100F100008958091B0008F7DF9CFCF93DF93282F74
:100F200030E0F901E853FA4F8491F901E456F54FA6
:100F3000D491F901E654F54FC491CC23A1F081116D
:100F40000E946407EC2FF0E0EE0FFF1FE254FA4F0F
:100F5000A591B491EC91ED2381E090E009F480E05B
:100F6000DF91CF91089580E090E0FACF1F93CF9367
:100F7000DF93282F30E0F901E853FA4F8491F9010B
:100F8000E456F54FD491F901E654F54FC491CC23C2
:100F9000A9F0162F81110E946407EC2FF0E0EE0FEC
:100FA000FF1FE055F54FA591B4918FB7F894EC91E0
:100FB000111108C0D095DE23DC938FBFDF91CF9154
:100FC0001F910895DE2BF8CFCF93DF9390E0FC01C3
:100FD000E456F54F24918654954FFC018491882363
:100FE000C9F090E0880F991FFC01E452FA4FA591D7
:100FF000B491FC01E055F54FC591D49161110DC03C
:101000009FB7F8948C91209582238C938881282314
:1010100028839FBFDF91CF910895623051F49FB72D
:10102000F8943C91822F809583238C93E8812E2B1A
:10103000EFCF8FB7F894EC912E2B2C938FBFEACF84
:101040008E50806480937C0080917A0080648093CD
:101050007A0080917A0086FDFCCF80917800909193
:10106000790008953FB7F8948091830290918402AB
:10107000A0918502B091860226B5A89B05C02F3F9E
:1010800019F00196A11DB11D3FBFBA2FA92F982FAE
:101090008827BC01CD01620F711D811D911D42E0A9
:1010A000660F771F881F991F4A95D1F708950F93F0
:1010B0001F93CF93DF93CDB7DEB729970FB6F89480
:1010C000DEBF0FBECDBF0E9432080091B403109165
:1010D000B5032091B6033091B703601771078207FB
:1010E000930740F46093B4037093B5038093B60301
:1010F0009093B7030091B4031091B5032091B60308
:101100003091B703601B710B820B930B6C327140F3
:1011100081059105C0F2F8948091A9039091AA03EA
:101120009A838983E091AE03F091AF03DF011196BA
:10113000808189879091A503E091B803F091B9036C
:101140008091BA03992309F445C09081982B988720
:101150009081809589238F838F818C8388E08B8316
:1011600058856F8149853B812C8189819A81508383
:1011700047FD252F3A952083262F39F0441F00C0C4
:1011800000006083000000C0F2CF38E04D91608322
:101190000000019761F7F093B903E093B803498722
:1011A0003B832C839A83898378940E9432086093CE
:1011B000B4037093B5038093B6039093B703299655
:1011C0000FB6F894DEBF0FBECDBFDF91CF911F9158
:1011D0000F9108959081982B98879081809589230D
:1011E0008F838F818E8388E08D8358856F814985B9
:1011F0003D812E8189819A81508347FD252F00C032
:1012000000C0208300C000C000C000C000C06083D8
:101210000000262F3A9541F0441F000000C000C096
:1012200000C000C000C0E8CF38E04D9100C060832E
:1012300000C0019709F7F093B903E093B803498719
:101240003D832E83AFCF8F929F92AF92BF92CF926A
:10125000DF92EF92FF926B017C010E9432084B01FA
:101260005C01C114D104E104F104B9F00E94320818
:10127000681979098A099B09683E734081059105BF
:1012800080F321E0C21AD108E108F10888EE880E47
:1012900083E0981EA11CB11CE4CFFF90EF90DF907B
:1012A000CF90BF90AF909F908F9008952FB7F894F4
:1012B00060917F0270918002809181029091820200
:1012C0002FBF08950F931F930E9456096093100338
:1012D00070931103809312039093130388E093E0BB
:1012E0000E94930697FF1DC00E94560900911003AB
:1012F000109111032091120330911303601B710BA5
:10130000820B930B00910C0310910D0320910E039F
:1013100030910F036017710782079307F8F28FEF80
:101320009FEF1F910F9108950895EF92FF920F93F1
:101330001F93CF93DF93EC01EC80FD806E157F054A
:101340000CF070C057FF04C0240F351F50E040E080
:101350008E819F81FA01E20FF31F8E179F071CF405
:101360009C01241B350B121613060CF05BC0922F48
:10137000842F8695869586958E9DD0018F9DB00D84
:1013800011246A0F7B1FAF8DB8A1A60FB71F47703E
:1013900049F188E0841B482F682F70E0FB01EA5474
:1013A000FA4FE491281708F063C0621B71092FEF10
:1013B00030E002C0359527956A95E2F7E2230130C7
:1013C000110539F0B0F10230110561F58C91E82773
:1013D00002C08C91E82BEC93941720F12C813D8175
:1013E000A20FB31FE92FE41BE83078F0023011059B
:1013F00021F58E2F9C9190959C932C813D81A20F7D
:10140000B31F88508830B0F7E770EE2359F0F0E052
:10141000E255FA4FE49101301105F9F010F1023074
:10142000110519F1DF91CF911F910F91FF90EF906E
:101430000895E0958C91E823CECF81E00115110548
:1014400009F480E081959E2F8C932C813D81A20F21
:10145000B31F98509830C0F7D7CF8C91E82BEC93FE
:10146000E1CFE0958C91E823FACF8C91E827F7CF74
:101470000130110509F4ADCFE0F20230110509F495
:10148000A5CFAE0DBF1DAECF0F931F93CF93DF93AC
:1014900077FF04C0260F371F70E060E0DC01149670
:1014A000CD91DC91FB01E20FF31FCE17DF071CF497
:1014B0009E01261B370B121613064CF5FA0157FD39
:1014C0003796A3E0F595E795AA95E1F7EC9FD00153
:1014D000ED9FB00DFC9FB00D11246A0F7B1FDC0146
:1014E0005F96ED91FC91E60FF71F4770552781E05D
:1014F00090E001C0880F4A95EAF7482F01301105A6
:1015000059F0A8F02E0F3F1F02301105E1F0DF91D6
:10151000CF911F910F9108952E0F3F1FE217F307F0
:10152000B1F38191DF011197842B8C93F7CF8095D4
:101530002E0F3F1FE217F30751F39191DF0111972F
:1015400098239C93F7CFE217F30709F38191DF010A
:10155000119784278C93F7CF0F931F93FA01DC0127
:1015600056964C9156974230E9F04330A1F1413004
:1015700061F514964D915C91DA01AE1BBF0BFD0134
:10158000E21BF30B77FD0BC0DC0116964D915C91CD
:101590006417750724F4AB01BF010E94440A1F9130
:1015A0000F91089514964D915C91DA01A61BB70B2B
:1015B000BD0161507109DC0116964D915C91DA0113
:1015C000AE1BBF0BFD01E21BF30B77FDE8CFAF01B4
:1015D0000E949509E4CF16964D915C91DA01A61B05
:1015E000B70BBD0161507109CDCF0F931F93FA0165
:1015F000DC0156964C9156974230A9F0433091F158
:10160000413019F514964D915C91DA01AE1BBF0B78
:10161000FD013197F7FD04C0AB01BF010E949509A0
:101620001F910F91089514964D915C91DA01A61BBC
:10163000B70BBD01DC0116964D915C91DA01AE1B32
:10164000BF0BFD013197621B730BF7FDE9CFDC0186
:1016500016964D915C91E417F50714F7AF010E94BF
:10166000440ADECF16964D915C91DA01A61BB70BAA
:10167000BD01621B730BCECFFC0177FD64C080857A
:101680009185681779070CF05EC057FD5CC08285B4
:101690009385481759070CF056C086898230B1F0FF
:1016A000833029F1813041F484819581841B950B2D
:1016B000AB01BC01615071092130310509F108F419
:1016C00043C02230310509F463C0089584819581B7
:1016D000DC01A61BB70BBD016150710986819781A2
:1016E000DC01A41BB50BAD0141505109E5CF86814A
:1016F0009781861B970BBA01AC0141505109DCCF91
:10170000CA0157FD0796A3E095958795AA95E1F73D
:10171000A481B5818A9F90018B9F300D9A9F300DD7
:101720001124620F731F078CF0A1E02DE60FF71F45
:101730004770552721E030E001C0220F4A95EAF7B3
:101740008081822B80830895CA0157FD079633E07C
:10175000959587953A95E1F7A481B5818A9F900187
:101760008B9F300D9A9F300D1124620F731F078CD1
:10177000F0A1E02DE60FF71F4770552781E090E0BC
:1017800001C0880F4A95EAF7809590818923DACFC6
:10179000CA0157FD079623E0959587952A95E1F7AD
:1017A000A481B5818A9F90018B9F300D9A9F300D47
:1017B0001124620F731F078CF0A1E02DE60FF71FB5
:1017C0004770552721E030E001C0220F4A95EAF723
:1017D00080818227B7CF08958EBD00000DB407FE2B
:1017E000FDCF8EB508958CBD9DBD08950895FC0173
:1017F0006370668B8481958126813781613039F0F1
:10180000633029F091878087338722870895318755
:1018100020879387828708952F923F924F925F92FD
:101820006F927F928F929F92AF92BF92CF92DF92F0
:10183000EF92FF920F931F93CF93DF93CDB7DEB755
:101840006A970FB6F894DEBF0FBECDBF9A8F898F0F
:101850007A8369834A01D22E18870F833701BC2C03
:10186000DC0159962D913C915A972115310509F0CB
:1018700015C118968D919C911997681779070CF0EE
:10188000D7C11A968D919C91481759070CF0D0C179
:101890004C2C512CB6E0CB9E600D711D11247C8721
:1018A0006B87161617060CF0C3C1EA2DF0E0FA8715
:1018B000E98793E0EE0FFF1F9A95E1F7F88BEF872A
:1018C000CF01840F951F181619060CF0B1C1A98D10
:1018D000BA8D58968C91811104C0BFEABD1508F4E9
:1018E000D394A98DBA8DED91FC9111970284F38563
:1018F000E02DCD010995B5E0DB9EC0011124E98101
:10190000FA81FC83EB83312C212C9C0122553F4F23
:10191000388F2F8B4A2D50E05E8B4D8BEF89F88DE1
:10192000E20DF31D44919E828D82D12CC12C6981E0
:101930007A81620D731D7A8B698B842F90E09C8B6A
:101940008B8BE98DFA8DA081B18140FF82C0F1E0DF
:10195000BF126FC0AF126DC01C96ED91FC912F812C
:101960003885A4014C0D5D1D69897A89898D9A8D10
:101970000995EB89FC89F595E7954E2F5FEFC51A20
:10198000D50A6D817E818D899E89680F791F7E833E
:101990006D8398E0C916D10481F6AFEF2A1A3A0A8E
:1019A000EB81FC81E40DF51DFC83EB83F5E02F1644
:1019B000310409F0B3CF2F81388526153705B9F0EA
:1019C000A98DBA8DED91FC91B1E0BB1257C0AB125D
:1019D00055C069817A816B5F7F4F0088F189E02D66
:1019E000830128E030E0A401898D9A8D0995A98DA5
:1019F000BA8DED91FC9111970688F789E02DCD0104
:101A00006A960FB6F894DEBF0FBECDBFDF91CF91BF
:101A10001F910F91FF90EF90DF90CF90BF90AF900C
:101A20009F908F907F906F905F904F903F902F90FE
:101A300009941E96ED91FC91EF80F88409851A8532
:101A400092014D815E816B817C81898D9A8D099592
:101A500090CF2F8138852615370509F48ACF31E0DC
:101A6000B31207C0A31205C01C96ED91FC9193011F
:101A700078CF1E96ED91FC917301E0CF6B857C854C
:101A8000641975090684F785E02D73010F8518899F
:101A90009201A401898D9A8D0995A9CFF9013496F7
:101AA0009491329745915491D91AB7E0DB9E400D3D
:101AB000511D1124F901259134913C8B2B8BFA0196
:101AC00025903490FA013296749031963491398B86
:101AD000329664903196449041E04C1518F04A15C6
:101AE00008F07FC0662D062C000C770B7C836B837F
:101AF000842D042C000C990B9E838D83A98DBA8DA7
:101B0000ED91FC9111970284F385E02DCD010995AB
:101B1000512CD12CC12CEA2DF0E0FA87E9872B2D2E
:101B200030E03C872B87A401440D511D47FC5A959A
:101B3000588F4F8B69817A81660D711D67FC7A958C
:101B40007E876D877989C71608F051CF2C2D30E03C
:101B50004D815E81420F531FA985BA854A9FC001FE
:101B60004B9F900D5A9F900D1124FC01E80DF91D1B
:101B7000F88BEF87852D612C4F89588D420F531FAD
:101B80005E8B4D8B671408F050C044244394480E7C
:101B9000877041F4C1010196EB89FC89E20DF31DC8
:101BA000D4901C01D7FE19C0A98DBA8DED91FC917E
:101BB000662D70E0B1E0BB1219C0AB1217C02D85C5
:101BC0003E85620F731F0484F585E02D2F813885D3
:101BD0004D895E89898D9A8D0995DD0C6394842DDC
:101BE000D1CF1E821D821C821B8288CF4B815C81DB
:101BF000640F751FAB85BC856A9FC0016B9F900DFC
:101C00007A9F900D112469817A81680F791F06846B
:101C1000F785E02DEF80F88409851A859D014F85B1
:101C20005889898D9A8D0995D8CF570CC3948ACF3E
:101C30006A960FB6F894DEBF0FBECDBFDF91CF918D
:101C40001F910F91FF90EF90DF90CF90BF90AF90DA
:101C50009F908F907F906F905F904F903F902F90CC
:101C600008958F929F92AF92CF92EF92FF920F932F
:101C70001F93CF93DF93EC01262F898D9A8D0097C8
:101C800009F051C06A30D1F41D861C868D8948E068
:101C9000849F900111248E859F85820F931F9F87BB
:101CA0008E8781E090E0DF91CF911F910F91FF909F
:101CB000EF90CF90AF909F908F9008956D3089F303
:101CC000CC88AD888F898823C1F08C859D8536E0CE
:101CD000C39E800D911D11244885598548175907C9
:101CE00064F44E855F851D861C8638E0A39EC00186
:101CF0001124840F951F9F878E87EA88FB880889A7
:101D000019894E855F856C857D85CE010E940C0CFE
:101D10002C898C859D8546E0249F800D911D112482
:101D20009D878C87BECF6A3069F41D861C86FC01B6
:101D30003896E4912D898E859F85E29F800D911DB7
:101D40001124ADCF6D3009F4ACCFFC013496349141
:101D5000631708F4A6CF3296E491E61708F4A1CFF2
:101D6000FC01329685909490462F431B342F47E018
:101D7000349F800C911C1124F401329634913196D9
:101D8000E4913323A9F1EE2399F1CC88F40135963F
:101D9000E491AD884F89442301F10E2E000CFF0B16
:101DA000E30FF11DCE9EA001CF9E500D11246C8536
:101DB0007D85460F571F68857985641775076CF414
:101DC0004E855F851D861C86FC013896E491AE9E8B
:101DD000400D511D11245F874E87EA88FB880889D2
:101DE00019894E855F856C857D85CE010E940C0C1E
:101DF000F4013496E4912C898C859D85E29F800DB9
:101E0000911D11248DCF6F927F928F929F92AF92EE
:101E1000BF92CF92DF92EF92FF920F931F93CF93D7
:101E2000DF93EC016B015A0139014801E881F98126
:101E30000284F385E02D0995E881F9810288F38910
:101E4000E02D87019301A501B601CE010995A501F9
:101E5000480D591D41505109E881F9810288F389E3
:101E6000E02D9301B601CE010995E881F981008842
:101E7000F189E02D9401A501B601CE010995C60CAA
:101E8000D71CB60161507109E881F9810088F18998
:101E9000E02D9401A501CE010995E881F98106881C
:101EA000F789E02DCE01DF91CF911F910F91FF9027
:101EB000EF90DF90CF90BF90AF909F908F907F90EA
:101EC0006F9009946F927F928F929F92AF92BF9280
:101ED000CF92DF92EF92FF920F931F93CF93DF93F6
:101EE0005C01EB016A01490138018701DC01ED91D8
:101EF000FC916217730719F5641675062CF0962D80
:101F0000872D3A01C92ED82E9601261937092F5F41
:101F10003F4F048CF58DE02DA301BE01C50109954D
:101F2000DF91CF911F910F91FF90EF90DF90CF90B5
:101F3000BF90AF909F908F907F906F9008954615BF
:101F4000570591F42617370724F0892D4B01C22F2E
:101F5000D82F9E01281939092F5F3F4F068CF78D26
:101F6000E02DA601B401DACF0284F385E02D0995B6
:101F7000D501ED91FC910488F589E02D8301940150
:101F8000A601BE01C5010995D501ED91FC91068818
:101F9000F789E02DC501DF91CF911F910F91FF903F
:101FA000EF90DF90CF90BF90AF909F908F907F90F9
:101FB0006F900994EF92FF920F931F93DC011A9692
:101FC0000D911C911B9718962D913C911997ED91AD
:101FD000FC9100A0F1A1E02D7B0150E040E070E019
:101FE00060E009951F910F91FF90EF9008954F9237
:101FF0005F926F927F928F929F92AF92BF92CF9299
:10200000DF92EF92FF920F931F93CF93DF936C01B8
:102010002B015A0139014801DC01ED91FC91028448
:10202000F385E02D0995E201640C751CD601ED9154
:10203000FC91C615D7055CF40088F189E02D870175
:102040009401A501BE01C60109952196EFCF06882E
:10205000F789E02DC601DF91CF911F910F91FF907D
:10206000EF90DF90CF90BF90AF909F908F907F9038
:102070006F905F904F9009948F929F92AF92BF9212
:10208000CF92DF92EF92FF920F931F93CF93DF9344
:10209000EC015B014A016901E881F9810284F38561
:1020A000E02D099595012C0D3D1D21503109E88148
:1020B000F9810488F589E02D78018401A401B50136
:1020C000CE010995E881F9810688F789E02DCE01D6
:1020D000DF91CF911F910F91FF90EF90DF90CF9004
:1020E000BF90AF909F908F9009948F929F92AF92E4
:1020F000BF92CF92DF92EF92FF920F931F93CF93F5
:10210000DF93EC015B014A0169017801E881F98103
:102110000284F385E02D0995C80CD91C8601015075
:102120001109E881F9810488F589E02D9501A40160
:10213000B501CE010995E881F9810688F789E02D7E
:10214000CE01DF91CF911F910F91FF90EF90DF9023
:10215000CF90BF90AF909F908F900994EF92FF9295
:102160000F931F93DC01ED91FC9100A0F1A1E02DF4
:1021700009951F910F91FF90EF9008950F931F9372
:10218000DC01ED91FC91068CF78DE02D09951F91F6
:102190000F9108950F931F93DC01ED91FC91048C36
:1021A000F58DE02D09951F910F910895DC01ED91BA
:1021B000FC910084F185E02D09943F924F925F924B
:1021C0006F927F928F929F92AF92BF92CF92DF9247
:1021D000EF92FF920F931F93CF93DF935C017B01EC
:1021E0004A016901390187E0680E711C93E075941A
:1021F00067949A95E1F72B01400E511E10E000E024
:10220000312CD0E0C0E0CE0187709927330C892BA8
:1022100059F4FE0183E0F595E7958A95E1F7E00F23
:10222000F11FE80DF91D349037FE0AC021E030E0BF
:10223000A701B5016C0F7D1F87EC93E00E94D610BB
:102240002196CC16DD06F9F68FEFE81AF80A060D8E
:10225000171DE414F504A9F6DF91CF911F910F919A
:10226000FF90EF90DF90CF90BF90AF909F908F90B6
:102270007F906F905F904F903F9008952F923F9284
:102280004F925F926F927F928F929F92AF92BF9286
:10229000CF92DF92EF92FF920F931F93CF93DF9332
:1022A00000D000D000D0CDB7DEB73C016A013E833C
:1022B0002D83FC82EB825801A41AB50AB7FE03C035
:1022C000B194A194B1088D809E80861A970A97FEDA
:1022D00003C09194819491088A149B045CF0902F20
:1022E000812F0D811E819D838E839C2D8D2D6B01F1
:1022F000692F782F0C151D055CF09D818E817E83E2
:102300006D83692F782F902F812F8601C92ED82EAB
:102310001601201A310A2B012D813E81421A530ADF
:1023200057FE03C0519441945108710137FE03C018
:102330003FEFE31AF30AF594E7948D819E818617A7
:1023400097075CF5A1E0B0E0BA83A983C016D10677
:102350004CF1D301ED91FC910484F585E02D2B81A6
:102360003C81A8016D817E818A149B041CF04D8103
:102370005E81B801C3010995E418F508F7FE0AC0AB
:102380002D813E8189819A81280F391F3E832D83BB
:10239000E20CF31C0F5F1F4FD9CF2FEF3FEF3A83B3
:1023A0002983D4CF26960FB6F894DEBF0FBECDBFDB
:1023B000DF91CF911F910F91FF90EF90DF90CF9021
:1023C000BF90AF909F908F907F906F905F904F9055
:1023D0003F902F900895089520915B02260F332798
:1023E000331F21323105ECF42091DE02FC0190E034
:1023F00080E0243069F082E00895A0915B02219191
:10240000AC01455C5D4FA40FB52FB11D2C93019617
:10241000861798F380915B02680F60935B0280E0FF
:10242000089581E008951092DE0281E08093DD023C
:102430001092B80261E082E10E94B60761E083E198
:102440000E94B607E9EBF0E080818E7F8083808177
:102450008D7F808388E48093B80085E48093BC00FE
:102460000895CF93DF9391E090933A028823B9F0D7
:10247000C091B800D091BA008091BC008A7B809353
:10248000BC0060E082E10E94B60760E083E10E9448
:10249000B6070E941312D093BA00C093B800DF9120
:1024A000CF9108958F929F92AF92BF92CF92DF9279
:1024B000EF92FF920F931F93CF93DF93D091070377
:1024C000D13208F0D7C0182FC09106030E943208FD
:1024D0006B017C018091DE0281116BC082E08093F0
:1024E000DE021093DD028FEF8093DC021092DB029C
:1024F000D093DA02A6EEB2E0EAEBF2E080E0D81385
:1025000091C01092B9028091B902CC0FC82BC09330
:10251000B9028091B802813009F088C01092B802E7
:102520000E9432086B017C018091B9028093BB004C
:102530008091E0029091E102A091E202B091E30269
:10254000892B8A2B8B2BA1F00E9432080091E0028C
:102550001091E1022091E2023091E3026C197D09B1
:102560008E099F09061717072807390708F442C084
:102570008091BC0083FDD8CF85EC8093BC000E9485
:1025800032086B017C018091DE02823009F450C078
:102590008091DC028F3F09F46FC08091DC028032B1
:1025A00009F46CC08091DC02803309F469C084E0D6
:1025B00026C08091E0029091E102A091E202B091E8
:1025C000E302892B8A2B8B2B09F484CF0E943208DB
:1025D0008090E0029090E102A090E202B090E302CD
:1025E0006C197D098E099F0986169706A806B906FB
:1025F00008F070CF8091DF020E94311285E01092C6
:10260000E502109207031092E402DF91CF911F912F
:102610000F91FF90EF90DF90CF90BF90AF909F9081
:102620008F9008959D9191938F5F69CF85EEA5CF8F
:102630008091E0029091E102A091E202B091E30268
:10264000892B8A2B8B2B09F49ECF0E943208009194
:10265000E0021091E1022091E2023091E3026C1954
:102660007D098E099F09061717072807390708F003
:102670008ACFC0CF81E0C3CF80E0C1CF82E0BFCF9F
:1026800083E0BDCFE0918D0280918C02E81730F499
:10269000F0E0E65EFD4F808190E008958FEF9FEFC0
:1026A000089590918D0280918C022FEF3FEF981743
:1026B00048F4E92FF0E0E65EFD4F208130E09F5FB7
:1026C00090938D02C901089580918C0290918D02A2
:1026D000891B990B0895CF92DF92EF92FF920F938F
:1026E0001F93CF93DF937C01CB018A012091E402F9
:1026F000222389F0EB016B01C40ED51ECC15DD053C
:1027000069F06991D701ED91FC910190F081E02D84
:10271000C7010995F3CF642F0E94EC11C801DF9126
:10272000CF911F910F91FF90EF90DF90CF90089580
:10273000CF93DF931F92CDB7DEB769832091E40278
:102740002223F9F020910703203258F021E030E0F5
:10275000FC013383228390E080E00F90DF91CF91E2
:1027600008958091E502E82FF0E0EA51FD4F99814C
:1027700090838F5F8093E5028093070381E090E070
:10278000ECCF61E0CE0101960E94EC11F7CF81E021
:102790000C945212EF92FF920F931F93CF93DF93FB
:1027A0007C01C62F8091E4039091E503009709F422
:1027B00059C02091E80331E03093E40220930603EE
:1027C0001092E50210920703DC01ED91FC9101905B
:1027D000F081E02D60E009958701EE24E394F12C6F
:1027E000D1E0C1508091E4039091E503CF3F91F196
:1027F000B0E2EB16F104D8F00E94C7138091E40315
:102800009091E5032091E803D093E402209306031E
:102810001092E50210920703DC01ED91FC9101900A
:10282000F081E02D60E00995EE24E394F12C809195
:10283000E4039091E503F8016491DC01ED91FC91D2
:102840000190F081E02D0995BFEFEB1AFB0A0F5FB5
:102850001F4FC7CFDF91CF911F910F91FF90EF9046
:102860000C94C713E091F403F091F50390818091EB
:10287000FA038095892380838701C15008F438C00A
:10288000F80184912091E2033091E303232B29F096
:102890000E94EC0B0F5F1F4FF0CF28E030E040E8C4
:1028A000E091F003F091F1039091F803582F542335
:1028B000D9F05081952B9083E091F203F091F303CE
:1028C00090815091F903952B9083E091F203F09160
:1028D000F30350819091F903909595239083469549
:1028E00021503109E9F6D6CF508190959523E3CF59
:1028F000DF91CF911F910F91FF90EF9008951F935B
:10290000CF93DF93EC018D8D9E8D009721F1162FD3
:1029100029A131E03093E402209306031092E502EE
:1029200010920703DC01ED91FC910190F081E02D04
:1029300060E009958D8D9E8DDC01ED91FC910190FB
:10294000F081E02D612F09958D8D9E8DDF91CF91C6
:102950001F910C94C713ADA5BEA59C918BA9809522
:1029600089238C938B8D9C8D892B31F0862FDF9161
:10297000CF911F910C94EC0B28E030E080E8A9A5E2
:10298000BAA599A9462F4823C1F04C91942B9C934A
:10299000ABA5BCA59C914AA9942B9C93ABA5BCA5C7
:1029A0004C919AA9909594239C9386952150310936
:1029B00031F7DF91CF911F9108954C919095942319
:1029C000E6CFDF92EF92FF920F931F93CF93DF93A7
:1029D0008091E4039091E503892B09F4A5C020912F
:1029E000FC033091FD034091FE035091FF0360E032
:1029F00074E284EF90E00E942F2A205131094109AE
:102A0000510956954795379527952093B80064E06E
:102A100088E99AE00E94CA138091CB039091CC037D
:102A20008034910509F097C060E287EC93E00E9442
:102A30007F146091CB03615E87EC93E00E947F146A
:102A40002091CD033091CE03C901079697FD0796DB
:102A500033E0959587953A95E1F72091CB03309136
:102A6000CC03829F8001839F100D929F100D112433
:102A7000C091E603D091E7038091E4039091E503D0
:102A80000C0F1D1F009709F498C02091E80331E056
:102A90003093E402209306031092E502109207039C
:102AA000DC01ED91FC910190F081E02D60E409954D
:102AB000EE24E394F12CDD24D3948091E4039091EF
:102AC000E5030C171D0709F44FC0B0E2EB16F10443
:102AD000D8F00E94C7138091E4039091E503209100
:102AE000E803D092E402209306031092E5021092CC
:102AF0000703DC01ED91FC910190F081E02D60E491
:102B00000995EE24E394F12C8091E4039091E50380
:102B10006991DC01ED91FC910190F081E02D099526
:102B2000BFEFEB1AFB0AC9CF8091E2039091E30358
:102B3000892B31F080910504909106040E94F30BDB
:102B4000E091F603F091F70390818091FB0380956B
:102B5000892380835CCF60E087EC93E00E947F1440
:102B60006091CB03615068CF0E94C7138091E4034A
:102B70009091E503892B09F461C020910004309104
:102B80000104409102045091030460E074E284EF78
:102B900090E00E942F2A2051310941095109569590
:102BA0004795379527952093B800DF91CF911F91D6
:102BB0000F91FF90EF90DF900895E091F403F09172
:102BC000F50380819091FA03892B80830C171D07F0
:102BD00069F289912091E2033091E303232B19F0EC
:102BE0000E94EC0BF3CF28E030E040E8E091F003E6
:102BF000F091F1039091F803582F5423D9F05081AC
:102C0000952B9083E091F203F091F3039081509122
:102C1000F903952B9083E091F203F091F303508137
:102C20009091F90390959523908346952150310911
:102C3000E9F6CCCF508190959523E3CFE091F60350
:102C4000F091F70380819091FB03892B8083ADCFB6
:102C50001F93CF93DF93EC01162F8D8D9E8D892BC3
:102C6000B1F12DA93EA94FA958AD60E074E284EFFF
:102C700090E00E942F2A20513109410951095695AF
:102C80004795379527952093B80066EA111167EAB2
:102C9000CE010E947F148D8D9E8D892B41F129AD2F
:102CA0003AAD4BAD5CAD60E074E284EF90E00E9421
:102CB0002F2A2051310941095109569547953795D9
:102CC00027952093B800DF91CF911F9108958B8DA8
:102CD0009C8D892B21F08EAD9FAD0E94F30BEFA54B
:102CE000F8A990818CA9809589238083CECFEFA508
:102CF000F8A980819CA9892B8083E5CF90E080E0B2
:102D00000895CF93DF93EC0161E086E00E94B6075F
:102D1000BE01DD0F880B990B0E94230960E086E05D
:102D2000DF91CF910C94B607E6E9F2E010821182B0
:102D3000128280E090E0A0EAB0E487839087A187C8
:102D4000B28713821482158216820895CF93DF937F
:102D5000EC0188819981009711F00E94212B198242
:102D600018821D821C821B821A82DF91CF910895E6
:102D7000FC0180819181009711F00C94212B089522
:102D80002091CD033091CE03C901079697FD079698
:102D900023E0959587952A95E1F72091CB03309113
:102DA000CC03829FA001839F500D929F500D112450
:102DB00070E060E08091E6039091E7030C94752C3D
:102DC000CF92DF92EF92FF920F931F93CF93DF93F7
:102DD00060E082E00E94B60760E083E00E94B607F0
:102DE0008091B702882309F45EC0C090B302D090EE
:102DF000B402E090B502F090B602C114D104E1042F
:102E0000F10409F450C00E9456096C197D098E091D
:102E10009F090E94F92520E030E64AE657E40E9427
:102E2000E4276093AF027093B0028093B102909355
:102E3000B2020E9497280091AB021091AC0220913F
:102E4000AD023091AE02DC01CB01800F911FA21FB9
:102E5000B31F8093AB029093AC02A093AD02B093EA
:102E6000AE020BEA12E0C2E3D0E0F801F1908F016C
:102E7000CE010E941B27F81621F06F2DCE010E9473
:102E800023272196C633D10581F788EC90E00E9474
:102E9000811664E670E080E090E00E94230988ECEF
:102EA00090E00E9481161092B702DF91CF911F919E
:102EB0000F91FF90EF90DF90CF9008950E94672CC4
:102EC000FC0180819181009711F00C94AF2560E0A6
:102ED00070E0CB010895FB0101900020E9F73197E4
:102EE000AF01461B570BDC01ED91FC910280F38191
:102EF000E02D09948F929F92AF92BF92EF92FF9232
:102F00000F931F93CF93DF93CDB7DEB7A1970FB683
:102F1000F894DEBF0FBECDBF7C01FA01CB0119A230
:102F2000223008F42AE08E010F5D1F4F822E912C73
:102F3000B12CA12CBF01A50194010E942F2AF901F7
:102F4000CA016A300CF5605DD8016E938D01232BA8
:102F5000242B252B79F790E080E0109721F0BD011C
:102F6000C7010E946B17A1960FB6F894DEBF0FBE83
:102F7000CDBFDF91CF911F910F91FF90EF90BF9048
:102F8000AF909F908F900895695CDECF2F923F9213
:102F90004F925F926F927F928F929F92AF92BF9269
:102FA000CF92DF92EF92FF921F93CF93DF93EC01CA
:102FB0006A017B01722EAB019601CB01B6010E9422
:102FC000B6296AE571E0811126C046015701E894EF
:102FD000B7F82FEF3FEF4FE75FE7C501B4010E945D
:102FE000B62981110CC02FEF3FEF4FE75FE7C50116
:102FF000B4010E94F4256EE571E0181664F02FEF1D
:103000003FEF4FE75FE4C701B6010E94ED281816B5
:10301000B4F462E671E0CE01DF91CF911F91FF9091
:10302000EF90DF90CF90BF90AF909F908F907F9068
:103030006F905F904F903F902F900C946B172FEFF5
:103040003FEF4FE75FECC701B6010E94F42587FD13
:10305000E0CF20E030E0A901C701B6010E94F425CD
:10306000312C212C87FF0DC0E881F9810190F0817E
:10307000E02D6DE2CE0109951C01F7FAF094F7F806
:10308000F09410E060E070E080E09FE3711641F0A2
:1030900020E030E040E251E40E94E4271F5FF6CFD9
:1030A000A70196010E9478272B013C010E949728D6
:1030B0004B015C012AE0BC01A401CE010E947A17F9
:1030C0007C01E20CF31C1123E1F1C501B4010E9463
:1030D000F9259B01AC01C301B2010E9477274B0186
:1030E0005C01E881F9810190F081E02D6EE2CE0172
:1030F0000995E80EF91E115020F120E030E040E281
:1031000051E4C501B4010E945A262B013C010E94E2
:1031100097284B01B12CA12C2AE0B501A401CE01C6
:103120000E947A17E80EF91EC501B4010E94F92524
:103130009B01AC01C301B2010E9477274B015C01E6
:10314000DACFC701DF91CF911F91FF90EF90DF9011
:10315000CF90BF90AF909F908F907F906F905F9037
:103160004F903F902F9008956115710511F00C94C8
:103170006B1790E080E008950F931F93CF93DF9338
:10318000EC0188819981009759F02A813B812617AB
:10319000370730F081E0DF91CF911F910F910895B3
:1031A0008B016F5F7F4F0E94AA2B009759F0998384
:1031B00088831B830A832C813D81232B59F7FC01D3
:1031C0001082E8CF80E0E7CFEF92FF920F931F933A
:1031D000CF93DF93EC017B01198218821B821A8244
:1031E0001D821C82FB0101900020E9F731978F01BD
:1031F000061B170BB8010E94BC18811109C0CE0133
:10320000DF91CF911F910F91FF90EF900C94A61634
:103210001D830C83B70188819981DF91CF911F9124
:103220000F91FF90EF900C94852C9F92AF92BF92DC
:10323000CF92DF92EF92FF920F931F93CF93DF9382
:103240007C016B015A0189012417350720F48B2D6D
:103250005901042F182F68E871E0C7010E94E41893
:10326000D6011496CD91DC91AC16BD0650F50C1725
:103270001D0708F4E801D601ED91FC911197EC0FC0
:10328000FD1F908010820D911C910A0D1B1D0115D0
:10329000110571F0F80101900020E9F731975F0105
:1032A000A01AB10AB501C7010E94BC18811116C04D
:1032B000C7010E94A616D6018D919C91C80FD91FF7
:1032C0009882C701DF91CF911F910F91FF90EF90EE
:1032D000DF90CF90BF90AF909F900895F701B58297
:1032E000A482B801808191810E94852CE4CF85ED74
:1032F0008093BC008091E0029091E102A091E202F3
:10330000B091E3020796A11DB11D23E0B695A795E4
:10331000979587952A95D1F72091BC0024FD03C08D
:103320001092DE0208954091E0025091E102609116
:10333000E2027091E302452B462B472B69F300977D
:10334000A105B10541F025E32A95F1F700000197A9
:10335000A109B109E1CF8091DF020C9431121F92D3
:103360000F920FB60F9211242F933F934F935F93B9
:103370006F937F938F939F93AF93BF93EF93FF933D
:1033800088E093E00E94D506FF91EF91BF91AF9145
:103390009F918F917F916F915F914F913F912F916D
:1033A0000F900FBE0F901F9018951F920F920FB69F
:1033B0000F9211242F938F939F93EF93FF93E0919C
:1033C0001803F09119038081E0911E03F0911F030F
:1033D00082FD1BC09081809121038F5F8F732091AC
:1033E0002203821741F0E0912103F0E0E85FFC4FF7
:1033F000958F80932103FF91EF919F918F912F9152
:103400000F900FBE0F901F9018958081F4CF1F92E0
:103410000F920FB60F9211242F933F938F939F9388
:10342000AF93BF9380917F0290918002A09181021F
:10343000B091820230917E0223E0230F2D3758F5A0
:103440000196A11DB11D20937E0280937F0290936F
:103450008002A0938102B0938202809183029091B6
:103460008402A0918502B09186020196A11DB11D32
:103470008093830290938402A0938502B093860286
:10348000BF91AF919F918F913F912F910F900FBE60
:103490000F901F90189526E8230F0296A11DB11DCD
:1034A000D2CF1F920F920FB60F9211242F933F93FA
:1034B0004F935F936F937F938F939F93AF93BF933C
:1034C000EF93FF93E0910201F09103010995FF91C1
:1034D000EF91BF91AF919F918F917F916F915F918C
:1034E0004F913F912F910F900FBE0F901F90189505
:1034F0001F920F920FB60F9211242F933F934F9369
:103500005F936F937F938F939F93AF93BF93EF934B
:10351000FF93E0910001F09101010995FF91EF9176
:10352000BF91AF919F918F917F916F915F914F91DB
:103530003F912F910F900FBE0F901F9018951F92E3
:103540000F920FB60F9211242F933F934F935F93D7
:103550006F937F938F939F93AF93BF93EF93FF935B
:103560008091B900887F803609F44AC0F0F588322E
:1035700009F4A7C018F5803109F49BC0B8F488237A
:1035800009F4F9C0883009F494C0FF91EF91BF911C
:10359000AF919F918F917F916F915F914F913F91EB
:1035A0002F910F900FBE0F901F901895883109F43E
:1035B00088C0803251F78093DC0214C0803409F453
:1035C0009DC040F48033B9F38833F9F68093DC0270
:1035D00085ECB0C0803509F485C0883509F496C003
:1035E000883499F60E947719D0CF883909F48CC0B5
:1035F00038F5883729F050F4883611F0803729F6ED
:1036000083E08093DE0210927D0257C0883809F46F
:103610007BC0803919F0803809F0B7CF80917D02E6
:10362000803208F071C0E0917D0281E08E0F8093BE
:103630007D028091BB00F0E0E35AFD4F80833DC0E6
:10364000803B39F0E0F4803A09F479C0883A09F017
:103650009CCF84E08093DE0210925C0210925B02A9
:10366000E0918A02F0918B02099580915B028111B1
:103670000FC081E080935B0210923B0209C0803C46
:1036800009F4A6CF883C09F4A3CF883B09F07DCF8D
:10369000E0915C0281E08E0F80935C02F0E0E55CDB
:1036A000FD4F80818093BB0090915C0280915B0212
:1036B00029C08091B9028093BB0085EC8093BC0047
:1036C00064CF9091DB028091DA02981758F5E0916F
:1036D000DB0281E08E0F8093DB02F0E0E654FD4FC9
:1036E0008081E9CFE091DB0281E08E0F8093DB02E5
:1036F0008091BB00F0E0E654FD4F80839091DB02A7
:103700008091DA029817C8F285E8D8CFE091DB0201
:1037100081E08E0F8093DB028091BB00F0E0E654E5
:10372000FD4F80838091DD0281115CCF81E0809329
:10373000B80284EA8093BC001092DE0226CF85ECAA
:103740008093BC001092DE0280917D02803230F4C2
:10375000E0917D02F0E0E35AFD4F108260917D021E
:1037600070E0E0918802F09189028DE592E0099580
:1037700010927D020ACF1092DC0234CF10920B031C
:1037800010920A0388EE93E0A0E0B0E080930C036F
:1037900090930D03A0930E03B0930F032EE031E03E
:1037A000309309032093080325EC30E03093150390
:1037B0002093140324EC30E0309317032093160376
:1037C00020EC30E0309319032093180321EC30E013
:1037D00030931B0320931A0322EC30E030931D0337
:1037E00020931C0326EC30E030931F0320931E032C
:1037F00010922103109222031092230310922403AB
:103800001092BE031092BD038093BF039093C00338
:10381000A093C103B093C20380E291E09093BC03F4
:103820008093BB031092CA031092C90320E830E0D2
:103830003093CC032093CB0380E490E09093CE03AD
:103840008093CD033093D0032093CF039093D20382
:103850008093D1031092DD031092D4031092D3030E
:103860001092D6031092D50381E08093DC038093FD
:10387000DB032FEF3FEF3093DA032093D90330932C
:10388000D8032093D7038093DE031092DF031092B6
:10389000E1031092E00322E331E03093C803209368
:1038A000C7031092E3031092E2032BEB33E0309353
:1038B000E5032093E4031092E7031092E6039FEFE1
:1038C0009093EB039093EC039093ED039093EE03AE
:1038D0009093EF0340E85AE166E070E04093FC0308
:1038E0005093FD036093FE037093FF0340EA56E894
:1038F00061E070E04093000450930104609302047F
:103900007093030490E590930504109206041092BE
:10391000A6031092AD031092B4031092B503109257
:10392000B6031092B7038093B3038093B003109251
:10393000B10392E09093B2038093A5038CE090E0F2
:103940009093AA038093A9030E94852A9093AF03C2
:103950008093AE03009789F12CE0FC0111922A9527
:10396000E9F784E090E09093A8038093A70387E0B1
:1039700090E09093AC038093AB038091A6038823DF
:1039800041F061E087E00E94E40760E087E00E9488
:10399000B607E1ECFAE0E491F0E0EE0FFF1FE0552E
:1039A000F54F859194919093B9038093B803E3EA1E
:1039B000FAE0E491E093BA0308951092AA031092FA
:1039C000A9031092A8031092A703D1CFCF93DF933E
:1039D000CDB7DEB7E2970FB6F894DEBF0FBECDBF0E
:1039E000789484B5826084BD84B5816084BD85B5DA
:1039F000826085BD85B5816085BD80916E008160E6
:103A000080936E001092810080918100826080938B
:103A1000810080918100816080938100809180008D
:103A20008160809380008091B10084608093B100B8
:103A30008091B00081608093B00080917A008460B2
:103A400080937A0080917A00826080937A008091DE
:103A50007A00816080937A0080917A0080688093F8
:103A60007A001092C100E0911803F091190382E0EE
:103A70008083E0911403F09115031082E091160306
:103A8000F091170380E1808310922003E0911C03E2
:103A9000F0911D0386E08083E0911A03F0911B03EF
:103AA000808180618083E0911A03F0911B03808103
:103AB00088608083E0911A03F0911B038081806805
:103AC0008083E0911A03F0911B0380818F7D8083B6
:103AD00061E083E00E94E40761E082E00E94E40785
:103AE00061E086E00E94E40761E084E00E94E40770
:103AF00062E080E00E94E40762E081E00E94E40767
:103B000062E082E00E94E40762E083E00E94E40752
:103B100062E084E00E94E40762E085E00E94E4073E
:103B20008091E6039091E703892B11F10E94C01662
:103B30002091CD033091CE038091CB039091CC03A3
:103B4000213231050CF0CAC0B9016052710977FF0A
:103B500002C06F5F7F4F759567958357910997FDF9
:103B6000019600E210E023E730E048EF55E0C9C0DD
:103B70002091CD033091CE03C901079697FD07969A
:103B8000B3E095958795BA95E1F72091CB033091F5
:103B9000CC03AC01429FC001439F900D529F900DFA
:103BA00011240E94852A9093E7038093E603892BD2
:103BB00009F0BCCF8091AB039091AC0397FD93C209
:103BC00061E00E94E40760E08091AB030E94B607C9
:103BD00081E08093A60326E9E22E22E0F22E10E097
:103BE00000E0C8010E941B27D7018D937D010F5F64
:103BF0001F4F0B301105A9F760919D0270919E0235
:103C000080919F029091A0029B01AC010E94B62975
:103C100081110E94941682E390E00E941B278093FA
:103C2000AB0283E390E00E941B278093AC0284E305
:103C300090E00E941B278093AD0285E390E00E94F4
:103C40001B278093AE028091AB029091AC02A091B1
:103C5000AD02B091AE028F3F9F4FAF4FBF4F41F4C7
:103C60001092AB021092AC021092AD021092AE0212
:103C700096E9C92ED12CE12CF12C88E093E00E942A
:103C8000B506181619060CF058C368E871E0CE01A5
:103C90008D960E94E4180E94620997FD27C28A301F
:103CA000910509F423C289831A8209A91AA90F5F11
:103CB0001F4FB801CE018D960E94BC18882359F37E
:103CC0002DA53EA589A99AA9BE016F5F7F4F820FDE
:103CD000931F0E94852C1AAB09ABDDCFB90160544C
:103CE000710977FF02C06F5F7F4F759567958255A9
:103CF000910997FD019600E410E022E530E048EDDF
:103D000057E0959587950E94DD1082E08093E90346
:103D10008091E4039091E503892B09F4DFC08CE3E3
:103D20008093E80310928D0210928C021092E502AB
:103D3000109207030E94131285E596E090938B0280
:103D400080938A0286E596E09093890280938802A8
:103D50008091EF0387FD1EC061E00E94E40761E0EF
:103D60008091EF030E94B60761E070E080E090E090
:103D70000E94230960E08091EF030E94B6076AE089
:103D800070E080E090E00E94230961E08091EF0301
:103D90000E94B6078091E4039091E503892B09F412
:103DA0005CC12091FC033091FD034091FE035091D2
:103DB000FF0360E074E284EF90E00E942F2A20511C
:103DC0003109410951095695479537952795209313
:103DD000B80064E084EF95E00E94CA136091CD03BF
:103DE000615087EC93E00E947F1464E080EF95E0DF
:103DF0000E94CA138091E90360E1813009F064E117
:103E000087EC93E00E947F1464E08CEE95E00E94C2
:103E1000CA138FE8809304048091CB039091CC0364
:103E20008038910509F030C18091CD039091CE0387
:103E30008034910509F038C18091E903813009F09F
:103E400046C18FE98093040412E16AED87EC93E0A8
:103E50000E947F14612F87EC93E00E947F1461E839
:103E600087EC93E00E947F146091040487EC93E058
:103E70000E947F1469ED87EC93E00E947F1480918B
:103E8000E90362E2813009F061EF87EC93E00E9480
:103E90007F1466E086EE95E00E94CA138091E403E9
:103EA0009091E503892B09F414C12091000430910D
:103EB0000104409102045091030460E074E284EF35
:103EC00090E00E942F2A205131094109510956954D
:103ED0004795379527952093B8006CCE61E0809187
:103EE000ED030E94E40761E08091EE030E94E40785
:103EF0008091ED03082E000C990BFC01E654F54F60
:103F0000E491F0E0EE0FFF1FE055F54F259134915D
:103F10003093F5032093F403FC01E456F54FE4914C
:103F2000E093FA038091EE03082E000C990BFC013C
:103F3000E654F54FE491F0E0EE0FFF1FE055F54F2A
:103F4000A591B491B093F703A093F603FC01E45656
:103F5000F54FE491E093FB038C91E82BEC93809177
:103F6000E2039091E303892B09F434C01FB7F8945E
:103F700080918702811127C0E4ECFAE08491E6EA9F
:103F8000FAE09491E82FF0E0EE0FFF1FE452FA4FB1
:103F9000A591B491EC91E92321F461E08AE00E94BB
:103FA000B60761E08AE00E94E4078CB580618CBDB1
:103FB0008CB580648CBD61E08DE00E94E40761E017
:103FC0008BE00E94E407809187028F5F80938702D5
:103FD0001FBFBECE61E08091EB030E94E40761E069
:103FE0008091EC030E94E4078091EB03082E000C03
:103FF000990BFC01E654F54FE491F0E0EE0FFF1F42
:10400000E055F54F259134913093F1032093F0035F
:10401000FC01E456F54FE491E093F8038091EC0342
:10402000082E000C990BFC01E654F54FE491F0E0EA
:10403000EE0FFF1FE055F54FA591B491B093F30338
:10404000A093F203FC01E456F54FE491E093F903E9
:104050008C91E095E823EC937BCE8091E2039091E4
:10406000E303892B31F080910504909106040E94AE
:10407000F30BE091F603F091F70390818091FB033D
:10408000809589238083A5CE8036910589F480911F
:10409000CD039091CE03409739F48091E9038130AC
:1040A00029F480E18093040412E0CFCE8FEAFACFA6
:1040B00080349105C9F78091CD039091CE0380970C
:1040C00099F78091E903813011F480E1BBCE8FEC48
:1040D000B9CEE091F603F091F70380819091FB0354
:1040E000892B808367CD1092A60375CD8DA49EA4E5
:1040F0008114910439F009A91AA954010115110577
:1041000009F03CC463E771E0CE0101960E94E41817
:1041100009A91AA94D815E810417150790F08DA594
:104120009EA5009771F069817A816115710549F04A
:104130000E948C2C892B29F4BB24B39404311105E3
:1041400008F4B12CCE0101960E94B816BB2009F4E8
:104150004BC423E130E041E150E0BE01635D7F4F9D
:10416000CE0187960E941519CE0187960E9460178E
:10417000A62E21E130E04FE050E0BE01635D7F4FAD
:10418000CE0181960E941519CE0181960E9460177A
:10419000B62E2FE030E04DE050E0BE01635D7F4F72
:1041A000CE014B960E941519CE014B960E946017C6
:1041B000062F29E030E047E050E0BE01635D7F4F0D
:1041C000CE0145960E941519CE0145960E946017B2
:1041D000162F2BE030E049E050E0BE01635D7F4FD9
:1041E000CE010F960E941519CE010F960E946017FE
:1041F000962E2DE030E04BE050E0BE01635D7F4F36
:10420000CE0109960E941519CE0109960E946017E9
:10421000262F6053784F603DF7E07F0708F4262F84
:104220001E821D8282E089833AE08A2D632F0E94DC
:10423000232A982F990F890F880FA80EAA828B2DF9
:104240000E94232A982F990F890F880FB80EBB82DE
:10425000802F0E94232A982F990F890F880F080F0B
:104260000C83812F0E94232A982F990F890F880F82
:10427000180F1D83892D0E94232A982F990F890FCB
:10428000880F980E9F82822F0E94232A982F880FD2
:10429000890F880F820F8887E0918E02F0918F023C
:1042A000848195810897E8F081819281208131E0B5
:1042B0003093E402209306031092E5021092070364
:1042C000DC01ED91FC910280F381E02D48E050E0AB
:1042D000BE016F5F7F4F0995089719F481E00E9436
:1042E0005212CE0109960E94B816CE010F960E9476
:1042F000B816CE0145960E94B816CE014B960E9484
:10430000B816CE0181960E94B816CE0187960E94FB
:10431000B8166BE771E088E093E00E946B1766E8DF
:1043200071E088E093E00E946B1784E690E00E94C1
:104330008116CE018D960E94B81686E9282E312C62
:10434000812C912C5401412C512C32018EE00E9481
:1043500020088C0112508FE00E942008AC015250BE
:104360009801D8010E94702A460E571E681E791EB9
:104370009A01DA010E94702A860E971EA81EB91EA5
:10438000B1E02B1A310811F7C301B201A701960160
:104390000E94512ACA01B9010E94FB250E94762978
:1043A00024E13EEA47E05FE30E945A266093A102BF
:1043B0007093A2028093A3029093A402C501B4015A
:1043C000A70196010E94512ACA01B9010E94FB254A
:1043D0000E9476292AE037ED43EA5DE30E945A26DF
:1043E0006093900270939102809392029093930253
:1043F00085E10E9420082091B702211145C08B3F22
:1044000091050CF441C00E945609A70196010E9433
:104410002F2A622F617086E00E94B6070E9456091B
:10442000A70196010E942F2ADA01C901A901BD0145
:10443000417055276627772780FF04C040E050E091
:104440006FEF70E082E090E00E9493058091AE03F0
:104450009091AF03892B11F00E9457080E94C0165B
:104460008AE090E09093D4038093D30389E190E0B5
:104470009093D6038093D50363E971E087EC93E0D2
:104480000E94B4180E94E1140E94560924EF31E002
:1044900040E050E00E942F2A622F617084E00E9469
:1044A000B6078091AA02811117C18091A5028111DE
:1044B00028C10E948D078C0182E00E948D074C016B
:1044C00085E00E948D075C010115110581F4809142
:1044D000B702882361F062EA71E0CE0101960E9482
:1044E000E4180E94E016CE0101960E94B816AA9424
:1044F000AB2809F058C08091B702811159C0012B37
:1045000009F4E6C0892809F0E3C083E00E948D0722
:10451000019709F0DDC020E030E04AE253E4609109
:10452000A1027091A2028091A3029091A4020E9424
:10453000ED2818162CF080919802882309F4C8C041
:1045400061E082E00E94B60761E083E00E94B60766
:1045500088EE93E00E94811668EE73E080E090E0C0
:104560000E94230960E083E00E94B60785E10E9473
:104570002008883C91050CF08FC26CEA71E0CE01F6
:1045800001960E94E4180E94E016CE0101960E9456
:10459000B8160E9456096093B3027093B4028093D8
:1045A000B5029093B6028091B702882309F490C0B7
:1045B0000E9456090091B3021091B4022091B502F5
:1045C0003091B602601B710B820B930B61387F44F4
:1045D0008241910578F067EB71E0CE0101960E946F
:1045E000E4180E94E016CE0101960E94B81681E000
:1045F0008093A50280919602811132C00E945609D3
:104600000091B3021091B4022091B5023091B6022C
:10461000601B710B820B930B61337547810591050C
:10462000F8F080919402909195020597CCF463EC98
:1046300071E0CE0101960E94E4180E94E016CE01BE
:1046400001960E94B81681E08093AA020E94560942
:104650006093A6027093A7028093A8029093A90288
:104660008090990290909A02A0909B02B0909C0238
:1046700020E030E0A901C501B4010E94ED28181620
:104680000CF012C220E030E040EA5FE3C501B40163
:104690000E945A269B01AC0180919702811118C09B
:1046A0006091900270919102809192029091930298
:1046B0000E94ED28181664F46BEC71E0CE010196AF
:1046C0000E94E4180E94E016CE0101960E94B816DE
:1046D0008091AA028823A9F00E9456090091A6029F
:1046E0001091A7022091A8023091A902601B710BC2
:1046F000820B930B603477478B41910510F0109239
:10470000AA020E94C0161092D4031092D3031092F2
:10471000D6031092D50364ED71E087EC93E00E941C
:10472000B4184091A1025091A2026091A30270912D
:10473000A40220E087EC93E00E94C61767ED71E0C9
:1047400087EC93E00E94B41840919002509191023E
:10475000609192027091930221E087EC93E00E94B5
:10476000C6178091B70266E671E0811102C06CE65F
:1047700071E087EC93E00E94B4181092D403109279
:10478000D30384E190E09093D6038093D5036BED3F
:1047900071E087EC93E00E94B4184091AF02509111
:1047A000B0026091B1027091B20221E087EC93E017
:1047B0000E94C61762EE71E087EC93E00E94B41885
:1047C0001092D4031092D30388E290E09093D60322
:1047D0008093D50367EE71E087EC93E00E94B418F4
:1047E0006091AB027091AC028091AD029091AE02EB
:1047F0000E94F92520E030E040E752E40E94E427DF
:10480000AB01BC0121E087EC93E00E94C6176EEE7D
:1048100071E087EC93E00E94B4181092D4031092D8
:10482000D30387E390E09093D6038093D5038091E0
:10483000AA0263EF71E0811106C08091A50288236E
:1048400031F064E072E087EC93E00E94B4180E94BB
:10485000E11480E00E948D072FEF40E0892B41F0AA
:1048600081E00E948D07019709F027C120E04FEFFA
:1048700060E090E080E00E94040620E030E04AE240
:1048800053E46091A1027091A2028091A3029091E1
:10489000A4020E94ED2840E050E06FEF70E018168F
:1048A0001CF040E050E0BA0181E090E00E949305E6
:1048B0008091B702882309F424C10E9456090E94FE
:1048C000F92520E030E04AEF53E40E94E4272BED85
:1048D0003FE049E450E40E945A260E9468290E9461
:1048E0005E282CEE31E548EB5EE30E94772720E05E
:1048F00030E048ED52E40E945A260E9490284B0175
:10490000072E000C880B990B0E94FB252DEC3CEC2C
:104910004CEC5EE30E945A260E949728462F20E026
:10492000682D82E090E00E940406809194029091AC
:104930009502181619060CF0ECC020E04FEF6FEF4F
:1049400083E090E00E940406109295021092940277
:104950008091AE039091AF03892B11F00E9457080C
:1049600080E090E0892B09F488C90E94C106882361
:1049700009F483C90E94000080C953013501FFEF8B
:104980006F1A7F0AD5018C91082E000C990B0E949A
:10499000EB25892B91F701501109080D191DF8011C
:1049A0008081082E000C990B0E94EB25892B31F099
:1049B0000A151B0518F001501109F1CFA8014F5F2E
:1049C0005F4F4A195B095AAB49AB8A149B0420F428
:1049D000B501C4010E946C2CEDA5FEA589A99AA978
:1049E000E80FF91F10828ECB89A99AA9892B09F4A7
:1049F000A0CC69E871E08DA59EA50E947C2C892B36
:104A000009F097CC4091A1025091A2026091A302BB
:104A10007091A40220E088E093E00E94C61761E94B
:104A200071E088E093E00E94B418409190025091A8
:104A30009102609192027091930221E088E093E0EC
:104A40000E94C61761E971E088E093E00E94B41803
:104A50004091B70250E070E060E02AE088E093E027
:104A60000E947A1761E971E088E093E00E94B4182F
:104A70004091AB025091AC026091AD027091AE02D8
:104A80002AE088E093E00E947A1766E871E088E007
:104A900093E00E946B174DCC81E08093B702109297
:104AA00095021092940275CD20919D0230919E0244
:104AB00040919F025091A002EFCD82E00E948D07AD
:104AC00020E045EA6FEF892B09F4D3CE0E94560906
:104AD00020E931E040E050E00E942F2ADA01C901CC
:104AE000A901BD01417055276627772780FF04C0C3
:104AF00040E050E06FEF70E090E080E00E949305AE
:104B0000BCCE40E050E0BA0182E090E00E94930504
:104B10000CCF40E050E0BA0183E090E00E949305A2
:104B200017CF8091AE039091AF030E94212B80910B
:104B3000AB039091AC0397FD03C060E00E94E407D3
:104B400082E391E09093C8038093C7038091E603CA
:104B50009091E703009711F00C94212B08951F9377
:104B6000FC0199278827BC01E89411911032E9F3E0
:104B7000193010F01E30C8F31B3251F01D3249F4C9
:104B8000689406C00E94D625610F711D811D911D7C
:104B9000119110531A30B0F33EF4909580957095B2
:104BA00061957F4F8F4F9F4F1F910895592F482F29
:104BB000372F262F660F771F881F991F660F771FC5
:104BC000881F991F620F731F841F951F660F771F21
:104BD000881F991F089591110C94C726803219F0EF
:104BE00089508550C8F708950E94362608F481E060
:104BF0000895E89409C097FB3EF4909580957095D0
:104C000061957F4F8F4F9F4F9923A9F0F92F96E918
:104C1000BB279395F695879577956795B795F1118D
:104C2000F8CFFAF4BB0F11F460FF1BC06F5F7F4F2A
:104C30008F4F9F4F16C0882311F096E911C077233C
:104C400021F09EE8872F762F05C0662371F096E845
:104C5000862F70E060E02AF09A95660F771F881F14
:104C6000DAF7880F9695879597F90895990F0008B8
:104C7000550FAA0BE0E8FEEF16161706E807F9072E
:104C8000C0F012161306E407F50798F0621B730BC9
:104C9000840B950B39F40A2661F0232B242B252B4A
:104CA00021F408950A2609F4A140A6958FEF811DED
:104CB000811D08950E946D260C94E1260E94D32642
:104CC00038F00E94DA2620F0952311F00C94CA26C1
:104CD0000C94D02611240C9415270E94F22670F310
:104CE000959FC1F3950F50E0551F629FF001729F91
:104CF000BB27F00DB11D639FAA27F00DB11DAA1FA0
:104D0000649F6627B00DA11D661F829F2227B00DEC
:104D1000A11D621F739FB00DA11D621F839FA00D77
:104D2000611D221F749F3327A00D611D231F849FC7
:104D3000600D211D822F762F6A2F11249F5750401E
:104D40009AF0F1F088234AF0EE0FFF1FBB1F661F99
:104D5000771F881F91505040A9F79E3F510580F062
:104D60000C94CA260C9415275F3FE4F3983ED4F3C5
:104D7000869577956795B795F795E7959F5FC1F706
:104D8000FE2B880F911D9695879597F90895992781
:104D90008827089597F99F6780E870E060E008959C
:104DA0009FEF80EC089500240A9416161706180643
:104DB0000906089500240A9412161306140605061F
:104DC0000895092E0394000C11F4882352F0BB0FB0
:104DD00040F4BF2B11F460FF04C06F5F7F4F8F4F13
:104DE0009F4F089557FD9058440F551F59F05F3F4E
:104DF00071F04795880F97FB991F61F09F3F79F0FD
:104E000087950895121613061406551FF2CF46957E
:104E1000F1DF08C0161617061806991FF1CF869500
:104E20007105610508940895E894BB2766277727E4
:104E3000CB0197F90895F999FECF92BD81BDF89AFB
:104E4000992780B50895262FF999FECF1FBA92BDF4
:104E500081BD20BD0FB6F894FA9AF99A0FBE01965B
:104E600008952F923F924F925F926F927F928F920E
:104E70009F92AF92BF92CF92DF92EF92FF920F93E9
:104E80001F93CF93DF93CDB7DEB7CA1BDB0B0FB6F3
:104E9000F894DEBF0FBECDBF09942A8839884888B0
:104EA0005F846E847D848C849B84AA84B984C88446
:104EB000DF80EE80FD800C811B81AA81B981CE0F3D
:104EC000D11D0FB6F894DEBF0FBECDBFED01089522
:104ED000A29FB001B39FC001A39F700D811D11243B
:104EE000911DB29F700D811D1124911D0895505880
:104EF000BB27AA270E948F270C94E1260E94D32665
:104F000038F00E94DA2620F039F49F3F19F426F495
:104F10000C94D0260EF4E095E7FB0C94CA26E92FFA
:104F20000E94F22658F3BA176207730784079507A1
:104F300020F079F4A6F50C9414270EF4E0950B2ECE
:104F4000BA2FA02D0B01B90190010C01CA01A001DB
:104F50001124FF27591B99F0593F50F4503E68F136
:104F60001A16F040A22F232F342F4427585FF3CF77
:104F7000469537952795A795F0405395C9F77EF448
:104F80001F16BA0B620B730B840BBAF09150A1F091
:104F9000FF0FBB1F661F771F881FC2F70EC0BA0F17
:104FA000621F731F841F48F4879577956795B7959F
:104FB000F7959E3F08F0B0CF9395880F08F099279A
:104FC000EE0F9795879508950E94F8270C94E12697
:104FD0000E94DA2658F00E94D32640F029F45F3F61
:104FE00029F00C94CA2651110C9415270C94D02644
:104FF0000E94F22668F39923B1F3552391F3951B90
:10500000550BBB27AA2762177307840738F09F5FE9
:105010005F4F220F331F441FAA1FA9F335D00E2E56
:105020003AF0E0E832D091505040E695001CCAF7C3
:105030002BD0FE2F29D0660F771F881FBB1F261786
:1050400037074807AB07B0E809F0BB0B802DBF015D
:10505000FF2793585F4F3AF09E3F510578F00C942C
:10506000CA260C9415275F3FE4F3983ED4F3869547
:1050700077956795B795F7959F5FC9F7880F911D4D
:105080009695879597F90895E1E0660F771F881F39
:10509000BB1F621773078407BA0720F0621B730BEC
:1050A000840BBA0BEE1F88F7E095089529F416F0EB
:1050B0000C94CA260C9414270C94D0260E94FA262D
:1050C000A8F39638A0F707F80F92E8942BE33AEA92
:1050D00048EB5FE70E9470260F920F920F924DB738
:1050E0005EB70F920E943429E8E6F0E00E94C628DD
:1050F0004F915F91EF91FF91E595EE1FFF1F49F0F2
:10510000FE57E0684427EE0F441FFA95E1F74195FA
:10511000550B0E94FE280F9007FE0C94F22808956C
:105120000E9497286894B1110C94152708950E9445
:10513000FA2688F09F5798F0B92F9927B751B0F009
:10514000E1F0660F771F881F991F1AF0BA95C9F70B
:1051500014C0B13091F00E941427B1E008950C946E
:105160001427672F782F8827B85F39F0B93FCCF321
:10517000869577956795B395D9F73EF49095809588
:10518000709561957F4F8F4F9F4F0895DF93CF9319
:105190001F930F93FF92EF92DF927B018C01689433
:1051A00006C0DA2EEF010E946D26FE01E894A5915B
:1051B0002591359145915591A6F3EF010E948F27D6
:1051C000FE019701A801DA9469F7DF90EF90FF9054
:1051D0000F911F91CF91DF9108950E94362608F418
:1051E0008FEF08959B01AC0160E070E080E89FE3E1
:1051F0000C94E4270C94CA260C94BB290E94FA262E
:10520000D8F39923C9F3940F511DA3F39150504043
:1052100094F059F0882332F0660F771F881F915061
:105220005040C1F79E3F51052CF7880F911D969570
:10523000879597F908955F3FACF0983E9CF0BB27A7
:10524000869577956795B79508F4B1609395C1F702
:10525000BB0F58F711F460FFE8CF6F5F7F4F8F4FA0
:105260009F4FE3CF0C941527FA01DC01AA0FBB1F57
:105270009B01AC01BF5728F42227332744275078DD
:1052800020C0B75190F4AB2F002446953795279551
:10529000011CA395D2F3002071F0220F331F441F8D
:1052A000B395DAF30ED00C94772761307105A0E83E
:1052B0008A07B94630F49B01AC0166277727882717
:1052C0009078309621F02083318342835383089570
:1052D0009F930E94D2290F9007FCEE5F0C94FB294C
:1052E00019F416F40C94D0260C94BB290E94FA26CB
:1052F000B8F39923C9F3B6F39F57550B87FF0E9464
:10530000C9290024A0E640EA900180585695979557
:1053100028F4805C660F771F881F20F02617370758
:10532000480730F4621B730B840B202931294A2B68
:10533000A69517940794202531254A2758F7660F1C
:10534000771F881F20F026173707480730F4620BB5
:10535000730B840B200D311D411DA09581F7B90100
:10536000842F9158880F9695879508950E94362628
:10537000880B990B08959F3F31F0915020F4879549
:1053800077956795B795880F911D9695879597F9AD
:10539000089591505040660F771F881FD2F70895E7
:1053A0000C94D0260E94FA26D8F3E894E0E0BB27BC
:1053B0009F57F0F02AED3FE049EC06C0EE0FBB0F1F
:1053C000661F771F881F28F0B23A620773078407A9
:1053D00028F0B25A620B730B840BE3959A9572F71F
:1053E000803830F49A95BB0F661F771F881FD2F75D
:1053F00090480C94BD29EF93E0FF07C0A2EA2AED84
:105400003FE049EC5FEB0E948F270E94E1260F905E
:10541000039401FC9058E0E9F0E00C940F2A9F936C
:105420008F937F936F93FF93EF939B01AC010E9447
:105430005A26EF91FF910E94C6282F913F914F91DC
:105440005F910C945A26991B79E004C0991F961716
:1054500008F0961B881F7A95C9F780950895A1E2F8
:105460001A2EAA1BBB1BFD010DC0AA1FBB1FEE1FDE
:10547000FF1FA217B307E407F50720F0A21BB30B29
:10548000E40BF50B661F771F881F991F1A9469F7A5
:1054900060957095809590959B01AC01BD01CF0101
:1054A0000895052E97FB1EF400940E94682A57FD6C
:1054B00007D00E942F2A07FC03D04EF40C94682AD0
:1054C00050954095309521953F4F4F4F5F4F089530
:1054D00090958095709561957F4F8F4F9F4F089560
:1054E0000E946827332312F48A1B9B0B0C947A2AA0
:1054F0000E946827B7FF0895821B930B0895EE0F53
:10550000FF1F0590F491E02D09940F931F93CF9303
:10551000DF938230910510F482E090E0E09109047D
:10552000F0910A0430E020E0B0E0A0E0309799F478
:105530002115310509F44AC0281B390B24303105E7
:10554000D8F58A819B816115710589F1FB019383EF
:105550008283FE0111C0408151810281138148176D
:105560005907E0F04817590799F4109761F012961F
:105570000C93129713961C933296CF01DF91CF9123
:105580001F910F9108950093090410930A04F4CF1A
:105590002115310551F04217530738F0A901DB01FD
:1055A0009A01BD01DF01F801C1CFEF01F9CF90935E
:1055B0000A0480930904CDCFFE01E20FF31F81930B
:1055C00091932250310939832883D7CF2091070442
:1055D00030910804232B41F42091060130910701FA
:1055E00030930804209307042091040130910501B1
:1055F0002115310541F42DB73EB740910801509176
:105600000901241B350BE0910704F0910804E2170F
:10561000F307A0F42E1B3F0B2817390778F0AC01D5
:105620004E5F5F4F2417350748F04E0F5F1F5093B2
:10563000080440930704819391939FCFF0E0E0E04A
:105640009CCFCF93DF930097E9F0FC013297138250
:105650001282A0910904B0910A04ED0130E020E02B
:105660001097A1F420813181820F931F20910704AC
:10567000309108042817390709F061C0F093080435
:10568000E0930704DF91CF910895EA01CE17DF0779
:10569000E8F54A815B819E0141155105B1F7E901A9
:1056A000FB83EA8349915991C40FD51FEC17FD077D
:1056B00061F4808191810296840F951FE90199839D
:1056C0008883828193819B838A83F0E0E0E0129655
:1056D0008D919C9113970097B9F52D913C9111975D
:1056E000CD010296820F931F209107043091080488
:1056F0002817390739F6309751F510920A0410929D
:105700000904B0930804A0930704BCCFD383C283D9
:1057100040815181840F951FC817D90761F44E5FEE
:105720005F4F88819981480F591F518340838A8137
:105730009B81938382832115310509F0B0CFF093CB
:105740000A04E09309049ECFFD01DC01C0CF13825F
:105750001282D7CFB0E0A0E0E0EBFBE20C9433275D
:105760008C01009751F4CB010E94852A8C01C8015D
:10577000CDB7DEB7E0E10C944F27FC01E60FF71F31
:105780009C0122503109E217F30708F49DC0D901AA
:10579000CD91DC911197C617D70798F0C530D10588
:1057A00030F3CE0104978617970708F3C61BD70B73
:1057B0002297C193D1936D937C93CF010E94212BAB
:1057C000D6CF5B01AC1ABD0A4C018C0E9D1EA09178
:1057D0000904B0910A04512C412CF12CE12C1097B2
:1057E00031F580910704909108048815990509F016
:1057F0005CC04616570608F058C08091040190918D
:105800000501009741F48DB79EB740910801509172
:105810000901841B950BE817F90708F055C0F093B0
:105820000804E0930704F90171836083A0CF8D9190
:105830009C91119712966C90129713967C901397E7
:10584000A815B90559F56C0142E0C40ED11CCA1463
:10585000DB0420F1AC014A195B09DA0112961597B5
:1058600080F06282738251834083D9016D937C936F
:10587000E114F10471F0D7011396FC93EE931297A3
:1058800076CF22968C0F9D1FF90191838083F301BF
:10589000EFCFF0930A04E093090469CF4816590644
:1058A00008F42C017D01D3019ACFCB010E94852AF7
:1058B0007C01009749F0AE01B8010E946C2CC80130
:1058C0000E94212B870153CF10E000E050CF81E0F0
:1058D00090E0F8940C949A2CFB01DC0102C001903A
:1058E0000D9241505040D8F70895DC0101C06D93EE
:1058F00041505040E0F70895FB01DC018D9101908B
:1059000080190110D9F3990B0895FB01DC01019076
:105910000D920020E1F70895FB01DC014150504059
:1059200030F08D910190801919F40020B9F7881B8F
:10593000990B089515E0C8E6D5E004C0FE010E9469
:105940007F2A2196C936D107C9F7F894FFCF940969
:10595000940900000B04800000000000F7065706C1
:1059600084064407B5069306A706000000009813B6
:105970006B137E164A066413511342130000000095
:10598000310E57067E16EB113C0B4A06D610AE10B0
:10599000CA10BE103E114A06F70B2816AC0AF50ACB
:1059A000F70FDA0F620F030F6E616E00696E66000B
:1059B0006F766600205B4F4E5D00205B4F46465D74
:1059C000005345545254432D0041434B3A525443E3
:1059D0005F4F4B000D0A0047455453544154002C6F
:1059E000002121212057454C4445442021212100FC
:1059F00054414E4B2046554C4C0052454C41592089
:105A00004641494C004D41582052554E2045525276
:105A1000004452592052554E004F5645524C4F416A
:105A20004400563A0020413A004C4153543A200079
:105A3000206D696E004C4946453A2000206872731B
:105A4000004452592D52554E2052455452592E2E33
:105A50002E00212121204D41582052554E204552E3
:085A6000524F522021212100C8
:107E0000112484B714BE81FFF0D085E080938100F7
:107E100082E08093C00088E18093C10086E0809377
:107E2000C20080E18093C4008EE0C9D0259A86E02C
:107E300020E33CEF91E0309385002093840096BBD3
:107E4000B09BFECF1D9AA8958150A9F7CC24DD24C4
:107E500088248394B5E0AB2EA1E19A2EF3E0BF2EE7
:107E6000A2D0813461F49FD0082FAFD0023811F036
